:100000000C9435000C945D000C945D000C945D0024
:100010000C945D000C945D000C945D000C945D00EC
:100020000C945D000C945D000C945D000C945D00DC
:100030000C945D000C945D000C945D000C945D00CC
:100040000C94C4010C945D000C9434020C940E02C8
:100050000C945D000C945D000C945D000C945D00AC
:100060000C945D000C945D002F0311241FBECFEF94
:10007000D8E0DEBFCDBF11E0A0E0B1E0E6E2F7E0FE
:1000800002C005900D92AC31B107D9F721E0ACE187
:10009000B1E001C01D92A23CB207E1F710E0C5E358
:1000A000D0E004C02197FE010E948603C433D1072B
:1000B000C9F70E9466020C9491030C940000CF9241
:1000C000DF92EF92FF920F931F93CF93DF936C0118
:1000D0007A018B01C0E0D0E0CE15DF0581F0D801B8
:1000E0006D918D01D601ED91FC910190F081E02D93
:1000F000C6010995892B11F02196EECF7E01C7012B
:10010000DF91CF911F910F91FF90EF90DF90CF90F3
:100110000895089580E090E00895FC01538D448D8A
:10012000252F30E0842F90E0821B930B541710F0A2
:10013000CF96089501970895FC01918D828D9817AF
:1001400061F0828DDF01A80FB11D5D968C91928DBB
:100150009F5F9F73928F90E008958FEF9FEF0895B8
:10016000FC01918D828D981731F0828DE80FF11D81
:10017000858D90E008958FEF9FEF0895FC01918D9C
:10018000228D892F90E0805C9F4F821B91098F7395
:100190009927089585E291E00E94BE0021E0892B15
:1001A00009F420E0822F0895FC01848DDF01A80F5F
:1001B000B11DA35ABF4F2C91848D90E001968F738F
:1001C0009927848FA689B7892C93A089B1898C91AE
:1001D000837080648C93938D848D981306C00288FD
:1001E000F389E02D80818F7D80830895EF92FF92C7
:1001F0000F931F93CF93DF93EC0181E0888F9B8D4A
:100200008C8D981305C0E889F989808185FD26C009
:10021000F62E0B8D10E00F5F1F4F0F731127E02E8E
:100220008C8DE8120CC00FB607FCFACFE889F9896B
:10023000808185FFF5CFCE010E94D400F1CF8B8D58
:10024000FE01E80FF11DE35AFF4FF0829FB7F894CB
:100250000B8FEA89FB89808180620AC09FB7F8947E
:10026000EE89FF896083E889F989808183708064E1
:1002700080839FBF81E090E0DF91CF911F910F912C
:10028000FF90EF900895CF93DF93EC01888D882342
:10029000C9F0EA89FB89808185FD05C0A889B989F3
:1002A0008C9186FD0FC00FB607FCF5CF808185FFCE
:1002B000F2CFA889B9898C9185FFEDCFCE010E943C
:1002C000D400E7CFDF91CF91089580E090E0892BB3
:1002D00029F00E94CA0081110C9400000895009733
:1002E00069F0FC0101900020E9F73197AF01481B4C
:1002F000590BBC0185E291E00C945F0080E090E036
:1003000008958F929F92AF92BF920F931F93CF93B6
:10031000DF93CDB7DEB7A1970FB6F894DEBF0FBE5F
:10032000CDBF19A2423008F44AE08E010F5D1F4F85
:10033000842E912CA12CB12CA50194010E94640360
:10034000E62FB901CA0101501109EA3014F4E05D49
:1003500001C0E95CD801EC93232B242B252B61F7FA
:10036000C8010E946F01A1960FB6F894DEBF0FBEC0
:10037000CDBFDF91CF911F910F91BF90AF909F9014
:100380008F9008950E948C031F920F920FB60F92C8
:1003900011242F933F938F939F93AF93BF9380919B
:1003A000210190912201A0912301B091240130916B
:1003B000200123E0230F2D3720F40196A11DB11D4C
:1003C00005C026E8230F0296A11DB11D2093200130
:1003D0008093210190932201A0932301B0932401E3
:1003E00080911C0190911D01A0911E01B0911F01EF
:1003F0000196A11DB11D80931C0190931D01A09336
:100400001E01B0931F01BF91AF919F918F913F91BA
:100410002F910F900FBE0F901F9018951F920F9263
:100420000FB60F9211242F933F934F935F936F93C7
:100430007F938F939F93AF93BF93EF93FF9385E247
:1004400091E00E94D400FF91EF91BF91AF919F91F5
:100450008F917F916F915F914F913F912F910F906D
:100460000FBE0F901F9018951F920F920FB60F920C
:1004700011242F938F939F93EF93FF93E091350176
:10048000F09136018081E0913B01F0913C0182FDC9
:1004900012C0908180913E018F5F8F7320913F0148
:1004A000821751F0E0913E01F0E0EB5DFE4F958F39
:1004B00080933E0101C08081FF91EF919F918F91C8
:1004C0002F910F900FBE0F901F901895789484B5C0
:1004D000826084BD84B5816084BD85B5826085BD40
:1004E00085B5816085BD80916E00816080936E00CE
:1004F00010928100809181008260809381008091C0
:100500008100816080938100809180008160809370
:1005100080008091B10084608093B1008091B00030
:1005200081608093B00080917A00846080937A002B
:1005300080917A00826080937A0080917A00816055
:1005400080937A0080917A00806880937A0010927C
:10055000C100E0913501F091360182E08083E091A5
:100560003101F09132011082E0913301F0913401B8
:1005700080E1808310923D01E0913901F0913A01D0
:1005800086E08083E0913701F091380180818061BD
:100590008083E0913701F091380180818860808309
:1005A000E0913701F0913801808180688083E0918B
:1005B0003701F091380180818F7D8083C12CD12C4F
:1005C00076014AE0C701B6010E94810185E191E010
:1005D0000E946F01C0E0D0E08601CE018C0D9D1D10
:1005E0000E945C03682F70E080E090E040E10E9490
:1005F000810182E191E00E946F012196C830D1050E
:1006000061F784E191E00E946F01C0E0D0E0CE018B
:10061000800F911F0E945C03813228F487E191E0F2
:100620000E946F0105C0682F85E291E00E94F600EC
:100630002196C830D10559F789E191E00E946F01F8
:1006400088E0C80ED11CE11CF11CC11484E0D8065E
:10065000E104F10409F0B5CF0E946501FDCFE5E2A8
:10066000F1E01382128288EE93E0A0E0B0E0848390
:100670009583A683B78384E091E09183808385ECA2
:1006800090E09587848784EC90E09787868780EC5C
:1006900090E0918B808B81EC90E0938B828B82EC4D
:1006A00090E0958B848B86EC90E0978B868B118EF7
:1006B000128E138E148E0895F999FECF92BD81BDCE
:1006C000F89A992780B50895A1E21A2EAA1BBB1BA0
:1006D000FD010DC0AA1FBB1FEE1FFF1FA217B3070E
:1006E000E407F50720F0A21BB30BE40BF50B661F24
:1006F000771F881F991F1A9469F7609570958095E8
:1007000090959B01AC01BD01CF010895EE0FFF1F35
:100710000590F491E02D099481E090E0F8940C9418
:060720009103F894FFCFE5
:1007260000000000F6005F008D004301BE009C0043
:0C073600B00020002009002E000D0A0079
:00000001FF
